{
  "_format": "hh-sol-artifact-1",
  "contractName": "Token",
  "sourceName": "contracts/Token.sol",
  "abi": [
    {
      "inputs": [
        {
          "internalType": "string",
          "name": "name",
          "type": "string"
        },
        {
          "internalType": "string",
          "name": "symbol",
          "type": "string"
        },
        {
          "internalType": "uint256",
          "name": "initialSupply",
          "type": "uint256"
        }
      ],
      "stateMutability": "nonpayable",
      "type": "constructor"
    },
    {
      "anonymous": false,
      "inputs": [
        {
          "indexed": true,
          "internalType": "address",
          "name": "owner",
          "type": "address"
        },
        {
          "indexed": true,
          "internalType": "address",
          "name": "spender",
          "type": "address"
        },
        {
          "indexed": false,
          "internalType": "uint256",
          "name": "value",
          "type": "uint256"
        }
      ],
      "name": "Approval",
      "type": "event"
    },
    {
      "anonymous": false,
      "inputs": [
        {
          "indexed": true,
          "internalType": "address",
          "name": "previousOwner",
          "type": "address"
        },
        {
          "indexed": true,
          "internalType": "address",
          "name": "newOwner",
          "type": "address"
        }
      ],
      "name": "OwnershipTransferred",
      "type": "event"
    },
    {
      "anonymous": false,
      "inputs": [
        {
          "indexed": true,
          "internalType": "address",
          "name": "from",
          "type": "address"
        },
        {
          "indexed": true,
          "internalType": "address",
          "name": "to",
          "type": "address"
        },
        {
          "indexed": false,
          "internalType": "uint256",
          "name": "value",
          "type": "uint256"
        }
      ],
      "name": "Transfer",
      "type": "event"
    },
    {
      "inputs": [
        {
          "internalType": "address",
          "name": "owner",
          "type": "address"
        },
        {
          "internalType": "address",
          "name": "spender",
          "type": "address"
        }
      ],
      "name": "allowance",
      "outputs": [
        {
          "internalType": "uint256",
          "name": "",
          "type": "uint256"
        }
      ],
      "stateMutability": "view",
      "type": "function"
    },
    {
      "inputs": [
        {
          "internalType": "address",
          "name": "spender",
          "type": "address"
        },
        {
          "internalType": "uint256",
          "name": "amount",
          "type": "uint256"
        }
      ],
      "name": "approve",
      "outputs": [
        {
          "internalType": "bool",
          "name": "",
          "type": "bool"
        }
      ],
      "stateMutability": "nonpayable",
      "type": "function"
    },
    {
      "inputs": [],
      "name": "balanceEthersSC",
      "outputs": [
        {
          "internalType": "uint256",
          "name": "",
          "type": "uint256"
        }
      ],
      "stateMutability": "view",
      "type": "function"
    },
    {
      "inputs": [
        {
          "internalType": "address",
          "name": "account",
          "type": "address"
        }
      ],
      "name": "balanceOf",
      "outputs": [
        {
          "internalType": "uint256",
          "name": "",
          "type": "uint256"
        }
      ],
      "stateMutability": "view",
      "type": "function"
    },
    {
      "inputs": [],
      "name": "balanceTokensSC",
      "outputs": [
        {
          "internalType": "uint256",
          "name": "",
          "type": "uint256"
        }
      ],
      "stateMutability": "view",
      "type": "function"
    },
    {
      "inputs": [
        {
          "internalType": "uint256",
          "name": "amount",
          "type": "uint256"
        }
      ],
      "name": "burn",
      "outputs": [],
      "stateMutability": "nonpayable",
      "type": "function"
    },
    {
      "inputs": [
        {
          "internalType": "uint256",
          "name": "numTokens",
          "type": "uint256"
        }
      ],
      "name": "buyTokens",
      "outputs": [],
      "stateMutability": "payable",
      "type": "function"
    },
    {
      "inputs": [],
      "name": "decimals",
      "outputs": [
        {
          "internalType": "uint8",
          "name": "",
          "type": "uint8"
        }
      ],
      "stateMutability": "view",
      "type": "function"
    },
    {
      "inputs": [
        {
          "internalType": "address",
          "name": "spender",
          "type": "address"
        },
        {
          "internalType": "uint256",
          "name": "subtractedValue",
          "type": "uint256"
        }
      ],
      "name": "decreaseAllowance",
      "outputs": [
        {
          "internalType": "bool",
          "name": "",
          "type": "bool"
        }
      ],
      "stateMutability": "nonpayable",
      "type": "function"
    },
    {
      "inputs": [
        {
          "internalType": "address",
          "name": "spender",
          "type": "address"
        },
        {
          "internalType": "uint256",
          "name": "addedValue",
          "type": "uint256"
        }
      ],
      "name": "increaseAllowance",
      "outputs": [
        {
          "internalType": "bool",
          "name": "",
          "type": "bool"
        }
      ],
      "stateMutability": "nonpayable",
      "type": "function"
    },
    {
      "inputs": [
        {
          "internalType": "uint256",
          "name": "amount",
          "type": "uint256"
        }
      ],
      "name": "mint",
      "outputs": [],
      "stateMutability": "nonpayable",
      "type": "function"
    },
    {
      "inputs": [],
      "name": "name",
      "outputs": [
        {
          "internalType": "string",
          "name": "",
          "type": "string"
        }
      ],
      "stateMutability": "view",
      "type": "function"
    },
    {
      "inputs": [],
      "name": "owner",
      "outputs": [
        {
          "internalType": "address",
          "name": "",
          "type": "address"
        }
      ],
      "stateMutability": "view",
      "type": "function"
    },
    {
      "inputs": [],
      "name": "renounceOwnership",
      "outputs": [],
      "stateMutability": "nonpayable",
      "type": "function"
    },
    {
      "inputs": [
        {
          "internalType": "uint256",
          "name": "numTokens",
          "type": "uint256"
        }
      ],
      "name": "repayTokens",
      "outputs": [],
      "stateMutability": "payable",
      "type": "function"
    },
    {
      "inputs": [],
      "name": "symbol",
      "outputs": [
        {
          "internalType": "string",
          "name": "",
          "type": "string"
        }
      ],
      "stateMutability": "view",
      "type": "function"
    },
    {
      "inputs": [],
      "name": "totalSupply",
      "outputs": [
        {
          "internalType": "uint256",
          "name": "",
          "type": "uint256"
        }
      ],
      "stateMutability": "view",
      "type": "function"
    },
    {
      "inputs": [
        {
          "internalType": "address",
          "name": "to",
          "type": "address"
        },
        {
          "internalType": "uint256",
          "name": "amount",
          "type": "uint256"
        }
      ],
      "name": "transfer",
      "outputs": [
        {
          "internalType": "bool",
          "name": "",
          "type": "bool"
        }
      ],
      "stateMutability": "nonpayable",
      "type": "function"
    },
    {
      "inputs": [
        {
          "internalType": "address",
          "name": "from",
          "type": "address"
        },
        {
          "internalType": "address",
          "name": "to",
          "type": "address"
        },
        {
          "internalType": "uint256",
          "name": "amount",
          "type": "uint256"
        }
      ],
      "name": "transferFrom",
      "outputs": [
        {
          "internalType": "bool",
          "name": "",
          "type": "bool"
        }
      ],
      "stateMutability": "nonpayable",
      "type": "function"
    },
    {
      "inputs": [
        {
          "internalType": "address",
          "name": "newOwner",
          "type": "address"
        }
      ],
      "name": "transferOwnership",
      "outputs": [],
      "stateMutability": "nonpayable",
      "type": "function"
    }
  ],
  "bytecode": "0x60806040523480156200001157600080fd5b5060405162002e3138038062002e318339818101604052810190620000379190620004b5565b828281600390816200004a919062000790565b5080600490816200005c919062000790565b5050506200007f62000073620000a260201b60201c565b620000aa60201b60201c565b60016006819055506200009930826200017060201b60201c565b50505062000992565b600033905090565b6000600560009054906101000a900473ffffffffffffffffffffffffffffffffffffffff16905081600560006101000a81548173ffffffffffffffffffffffffffffffffffffffff021916908373ffffffffffffffffffffffffffffffffffffffff1602179055508173ffffffffffffffffffffffffffffffffffffffff168173ffffffffffffffffffffffffffffffffffffffff167f8be0079c531659141344cd1fd0a4f28419497f9722a3daafe3b4186f6b6457e060405160405180910390a35050565b600073ffffffffffffffffffffffffffffffffffffffff168273ffffffffffffffffffffffffffffffffffffffff1603620001e2576040517f08c379a0000000000000000000000000000000000000000000000000000000008152600401620001d990620008d8565b60405180910390fd5b620001f660008383620002dd60201b60201c565b80600260008282546200020a919062000929565b92505081905550806000808473ffffffffffffffffffffffffffffffffffffffff1673ffffffffffffffffffffffffffffffffffffffff168152602001908152602001600020600082825401925050819055508173ffffffffffffffffffffffffffffffffffffffff16600073ffffffffffffffffffffffffffffffffffffffff167fddf252ad1be2c89b69c2b068fc378daa952ba7f163c4a11628f55a4df523b3ef83604051620002bd919062000975565b60405180910390a3620002d960008383620002e260201b60201c565b5050565b505050565b505050565b6000604051905090565b600080fd5b600080fd5b600080fd5b600080fd5b6000601f19601f8301169050919050565b7f4e487b7100000000000000000000000000000000000000000000000000000000600052604160045260246000fd5b620003508262000305565b810181811067ffffffffffffffff8211171562000372576200037162000316565b5b80604052505050565b600062000387620002e7565b905062000395828262000345565b919050565b600067ffffffffffffffff821115620003b857620003b762000316565b5b620003c38262000305565b9050602081019050919050565b60005b83811015620003f0578082015181840152602081019050620003d3565b60008484015250505050565b6000620004136200040d846200039a565b6200037b565b90508281526020810184848401111562000432576200043162000300565b5b6200043f848285620003d0565b509392505050565b600082601f8301126200045f576200045e620002fb565b5b815162000471848260208601620003fc565b91505092915050565b6000819050919050565b6200048f816200047a565b81146200049b57600080fd5b50565b600081519050620004af8162000484565b92915050565b600080600060608486031215620004d157620004d0620002f1565b5b600084015167ffffffffffffffff811115620004f257620004f1620002f6565b5b620005008682870162000447565b935050602084015167ffffffffffffffff811115620005245762000523620002f6565b5b620005328682870162000447565b925050604062000545868287016200049e565b9150509250925092565b600081519050919050565b7f4e487b7100000000000000000000000000000000000000000000000000000000600052602260045260246000fd5b60006002820490506001821680620005a257607f821691505b602082108103620005b857620005b76200055a565b5b50919050565b60008190508160005260206000209050919050565b60006020601f8301049050919050565b600082821b905092915050565b600060088302620006227fffffffffffffffffffffffffffffffffffffffffffffffffffffffffffffffff82620005e3565b6200062e8683620005e3565b95508019841693508086168417925050509392505050565b6000819050919050565b6000620006716200066b62000665846200047a565b62000646565b6200047a565b9050919050565b6000819050919050565b6200068d8362000650565b620006a56200069c8262000678565b848454620005f0565b825550505050565b600090565b620006bc620006ad565b620006c981848462000682565b505050565b5b81811015620006f157620006e5600082620006b2565b600181019050620006cf565b5050565b601f82111562000740576200070a81620005be565b6200071584620005d3565b8101602085101562000725578190505b6200073d6200073485620005d3565b830182620006ce565b50505b505050565b600082821c905092915050565b6000620007656000198460080262000745565b1980831691505092915050565b600062000780838362000752565b9150826002028217905092915050565b6200079b826200054f565b67ffffffffffffffff811115620007b757620007b662000316565b5b620007c3825462000589565b620007d0828285620006f5565b600060209050601f831160018114620008085760008415620007f3578287015190505b620007ff858262000772565b8655506200086f565b601f1984166200081886620005be565b60005b8281101562000842578489015182556001820191506020850194506020810190506200081b565b868310156200086257848901516200085e601f89168262000752565b8355505b6001600288020188555050505b505050505050565b600082825260208201905092915050565b7f45524332303a206d696e7420746f20746865207a65726f206164647265737300600082015250565b6000620008c0601f8362000877565b9150620008cd8262000888565b602082019050919050565b60006020820190508181036000830152620008f381620008b1565b9050919050565b7f4e487b7100000000000000000000000000000000000000000000000000000000600052601160045260246000fd5b600062000936826200047a565b915062000943836200047a565b92508282019050808211156200095e576200095d620008fa565b5b92915050565b6200096f816200047a565b82525050565b60006020820190506200098c600083018462000964565b92915050565b61248f80620009a26000396000f3fe60806040526004361061011f5760003560e01c80638da5cb5b116100a0578063a9059cbb11610064578063a9059cbb146103dc578063b934c38414610419578063dd62ed3e14610444578063ecf4911f14610481578063f2fde38b1461049d5761011f565b80638da5cb5b146102f557806392ef10d81461032057806395d89b411461034b578063a0712d6814610376578063a457c2d71461039f5761011f565b80633610724e116100e75780633610724e1461021f578063395093511461023b57806342966c681461027857806370a08231146102a1578063715018a6146102de5761011f565b806306fdde0314610124578063095ea7b31461014f57806318160ddd1461018c57806323b872dd146101b7578063313ce567146101f4575b600080fd5b34801561013057600080fd5b506101396104c6565b60405161014691906115a5565b60405180910390f35b34801561015b57600080fd5b5061017660048036038101906101719190611660565b610558565b60405161018391906116bb565b60405180910390f35b34801561019857600080fd5b506101a161057b565b6040516101ae91906116e5565b60405180910390f35b3480156101c357600080fd5b506101de60048036038101906101d99190611700565b610585565b6040516101eb91906116bb565b60405180910390f35b34801561020057600080fd5b506102096105b4565b604051610216919061176f565b60405180910390f35b6102396004803603810190610234919061178a565b6105bd565b005b34801561024757600080fd5b50610262600480360381019061025d9190611660565b6106f2565b60405161026f91906116bb565b60405180910390f35b34801561028457600080fd5b5061029f600480360381019061029a919061178a565b610729565b005b3480156102ad57600080fd5b506102c860048036038101906102c391906117b7565b61073e565b6040516102d591906116e5565b60405180910390f35b3480156102ea57600080fd5b506102f3610786565b005b34801561030157600080fd5b5061030a61079a565b60405161031791906117f3565b60405180910390f35b34801561032c57600080fd5b506103356107c4565b60405161034291906116e5565b60405180910390f35b34801561035757600080fd5b506103606107d4565b60405161036d91906115a5565b60405180910390f35b34801561038257600080fd5b5061039d6004803603810190610398919061178a565b610866565b005b3480156103ab57600080fd5b506103c660048036038101906103c19190611660565b61087b565b6040516103d391906116bb565b60405180910390f35b3480156103e857600080fd5b5061040360048036038101906103fe9190611660565b6108f2565b60405161041091906116bb565b60405180910390f35b34801561042557600080fd5b5061042e610915565b60405161043b91906116e5565b60405180910390f35b34801561045057600080fd5b5061046b6004803603810190610466919061180e565b610938565b60405161047891906116e5565b60405180910390f35b61049b6004803603810190610496919061178a565b6109bf565b005b3480156104a957600080fd5b506104c460048036038101906104bf91906117b7565b610ad8565b005b6060600380546104d59061187d565b80601f01602080910402602001604051908101604052809291908181526020018280546105019061187d565b801561054e5780601f106105235761010080835404028352916020019161054e565b820191906000526020600020905b81548152906001019060200180831161053157829003601f168201915b5050505050905090565b600080610563610b5b565b9050610570818585610b63565b600191505092915050565b6000600254905090565b600080610590610b5b565b905061059d858285610d2c565b6105a8858585610db8565b60019150509392505050565b60006012905090565b6105c561102e565b60006105ee6105d26105b4565b600a6105de9190611a10565b836105e99190611a8a565b61107d565b905080341015610633576040517f08c379a000000000000000000000000000000000000000000000000000000000815260040161062a90611b2d565b60405180910390fd5b600061063d6107c4565b905080831115610682576040517f08c379a000000000000000000000000000000000000000000000000000000000815260040161067990611b99565b60405180910390fd5b600082346106909190611bb9565b90503373ffffffffffffffffffffffffffffffffffffffff166108fc829081150290604051600060405180830381858888f193505050501580156106d8573d6000803e3d6000fd5b506106e4303386610db8565b5050506106ef61109a565b50565b6000806106fd610b5b565b905061071e81858561070f8589610938565b6107199190611bed565b610b63565b600191505092915050565b6107316110a4565b61073b3082611122565b50565b60008060008373ffffffffffffffffffffffffffffffffffffffff1673ffffffffffffffffffffffffffffffffffffffff168152602001908152602001600020549050919050565b61078e6110a4565b61079860006112ef565b565b6000600560009054906101000a900473ffffffffffffffffffffffffffffffffffffffff16905090565b60006107cf3061073e565b905090565b6060600480546107e39061187d565b80601f016020809104026020016040519081016040528092919081815260200182805461080f9061187d565b801561085c5780601f106108315761010080835404028352916020019161085c565b820191906000526020600020905b81548152906001019060200180831161083f57829003601f168201915b5050505050905090565b61086e6110a4565b61087830826113b5565b50565b600080610886610b5b565b905060006108948286610938565b9050838110156108d9576040517f08c379a00000000000000000000000000000000000000000000000000000000081526004016108d090611c93565b60405180910390fd5b6108e68286868403610b63565b60019250505092915050565b6000806108fd610b5b565b905061090a818585610db8565b600191505092915050565b600061091f6110a4565b670de0b6b3a7640000476109339190611a8a565b905090565b6000600160008473ffffffffffffffffffffffffffffffffffffffff1673ffffffffffffffffffffffffffffffffffffffff16815260200190815260200160002060008373ffffffffffffffffffffffffffffffffffffffff1673ffffffffffffffffffffffffffffffffffffffff16815260200190815260200160002054905092915050565b6109c761102e565b60008111610a0a576040517f08c379a0000000000000000000000000000000000000000000000000000000008152600401610a0190611d25565b60405180910390fd5b610a133361073e565b811115610a55576040517f08c379a0000000000000000000000000000000000000000000000000000000008152600401610a4c90611db7565b60405180910390fd5b610a60333083610db8565b3373ffffffffffffffffffffffffffffffffffffffff166108fc610aa1610a856105b4565b600a610a919190611a10565b84610a9c9190611a8a565b61107d565b9081150290604051600060405180830381858888f19350505050158015610acc573d6000803e3d6000fd5b50610ad561109a565b50565b610ae06110a4565b600073ffffffffffffffffffffffffffffffffffffffff168173ffffffffffffffffffffffffffffffffffffffff1603610b4f576040517f08c379a0000000000000000000000000000000000000000000000000000000008152600401610b4690611e49565b60405180910390fd5b610b58816112ef565b50565b600033905090565b600073ffffffffffffffffffffffffffffffffffffffff168373ffffffffffffffffffffffffffffffffffffffff1603610bd2576040517f08c379a0000000000000000000000000000000000000000000000000000000008152600401610bc990611edb565b60405180910390fd5b600073ffffffffffffffffffffffffffffffffffffffff168273ffffffffffffffffffffffffffffffffffffffff1603610c41576040517f08c379a0000000000000000000000000000000000000000000000000000000008152600401610c3890611f6d565b60405180910390fd5b80600160008573ffffffffffffffffffffffffffffffffffffffff1673ffffffffffffffffffffffffffffffffffffffff16815260200190815260200160002060008473ffffffffffffffffffffffffffffffffffffffff1673ffffffffffffffffffffffffffffffffffffffff168152602001908152602001600020819055508173ffffffffffffffffffffffffffffffffffffffff168373ffffffffffffffffffffffffffffffffffffffff167f8c5be1e5ebec7d5bd14f71427d1e84f3dd0314c0f7b2291e5b200ac8c7c3b92583604051610d1f91906116e5565b60405180910390a3505050565b6000610d388484610938565b90507fffffffffffffffffffffffffffffffffffffffffffffffffffffffffffffffff8114610db25781811015610da4576040517f08c379a0000000000000000000000000000000000000000000000000000000008152600401610d9b90611fd9565b60405180910390fd5b610db18484848403610b63565b5b50505050565b600073ffffffffffffffffffffffffffffffffffffffff168373ffffffffffffffffffffffffffffffffffffffff1603610e27576040517f08c379a0000000000000000000000000000000000000000000000000000000008152600401610e1e9061206b565b60405180910390fd5b600073ffffffffffffffffffffffffffffffffffffffff168273ffffffffffffffffffffffffffffffffffffffff1603610e96576040517f08c379a0000000000000000000000000000000000000000000000000000000008152600401610e8d906120fd565b60405180910390fd5b610ea183838361150b565b60008060008573ffffffffffffffffffffffffffffffffffffffff1673ffffffffffffffffffffffffffffffffffffffff16815260200190815260200160002054905081811015610f27576040517f08c379a0000000000000000000000000000000000000000000000000000000008152600401610f1e9061218f565b60405180910390fd5b8181036000808673ffffffffffffffffffffffffffffffffffffffff1673ffffffffffffffffffffffffffffffffffffffff16815260200190815260200160002081905550816000808573ffffffffffffffffffffffffffffffffffffffff1673ffffffffffffffffffffffffffffffffffffffff168152602001908152602001600020600082825401925050819055508273ffffffffffffffffffffffffffffffffffffffff168473ffffffffffffffffffffffffffffffffffffffff167fddf252ad1be2c89b69c2b068fc378daa952ba7f163c4a11628f55a4df523b3ef8460405161101591906116e5565b60405180910390a3611028848484611510565b50505050565b600260065403611073576040517f08c379a000000000000000000000000000000000000000000000000000000000815260040161106a906121fb565b60405180910390fd5b6002600681905550565b60006702c68af0bb14000082611093919061221b565b9050919050565b6001600681905550565b6110ac610b5b565b73ffffffffffffffffffffffffffffffffffffffff166110ca61079a565b73ffffffffffffffffffffffffffffffffffffffff1614611120576040517f08c379a0000000000000000000000000000000000000000000000000000000008152600401611117906122a9565b60405180910390fd5b565b600073ffffffffffffffffffffffffffffffffffffffff168273ffffffffffffffffffffffffffffffffffffffff1603611191576040517f08c379a00000000000000000000000000000000000000000000000000000000081526004016111889061233b565b60405180910390fd5b61119d8260008361150b565b60008060008473ffffffffffffffffffffffffffffffffffffffff1673ffffffffffffffffffffffffffffffffffffffff16815260200190815260200160002054905081811015611223576040517f08c379a000000000000000000000000000000000000000000000000000000000815260040161121a906123cd565b60405180910390fd5b8181036000808573ffffffffffffffffffffffffffffffffffffffff1673ffffffffffffffffffffffffffffffffffffffff1681526020019081526020016000208190555081600260008282540392505081905550600073ffffffffffffffffffffffffffffffffffffffff168373ffffffffffffffffffffffffffffffffffffffff167fddf252ad1be2c89b69c2b068fc378daa952ba7f163c4a11628f55a4df523b3ef846040516112d691906116e5565b60405180910390a36112ea83600084611510565b505050565b6000600560009054906101000a900473ffffffffffffffffffffffffffffffffffffffff16905081600560006101000a81548173ffffffffffffffffffffffffffffffffffffffff021916908373ffffffffffffffffffffffffffffffffffffffff1602179055508173ffffffffffffffffffffffffffffffffffffffff168173ffffffffffffffffffffffffffffffffffffffff167f8be0079c531659141344cd1fd0a4f28419497f9722a3daafe3b4186f6b6457e060405160405180910390a35050565b600073ffffffffffffffffffffffffffffffffffffffff168273ffffffffffffffffffffffffffffffffffffffff1603611424576040517f08c379a000000000000000000000000000000000000000000000000000000000815260040161141b90612439565b60405180910390fd5b6114306000838361150b565b80600260008282546114429190611bed565b92505081905550806000808473ffffffffffffffffffffffffffffffffffffffff1673ffffffffffffffffffffffffffffffffffffffff168152602001908152602001600020600082825401925050819055508173ffffffffffffffffffffffffffffffffffffffff16600073ffffffffffffffffffffffffffffffffffffffff167fddf252ad1be2c89b69c2b068fc378daa952ba7f163c4a11628f55a4df523b3ef836040516114f391906116e5565b60405180910390a361150760008383611510565b5050565b505050565b505050565b600081519050919050565b600082825260208201905092915050565b60005b8381101561154f578082015181840152602081019050611534565b60008484015250505050565b6000601f19601f8301169050919050565b600061157782611515565b6115818185611520565b9350611591818560208601611531565b61159a8161155b565b840191505092915050565b600060208201905081810360008301526115bf818461156c565b905092915050565b600080fd5b600073ffffffffffffffffffffffffffffffffffffffff82169050919050565b60006115f7826115cc565b9050919050565b611607816115ec565b811461161257600080fd5b50565b600081359050611624816115fe565b92915050565b6000819050919050565b61163d8161162a565b811461164857600080fd5b50565b60008135905061165a81611634565b92915050565b60008060408385031215611677576116766115c7565b5b600061168585828601611615565b92505060206116968582860161164b565b9150509250929050565b60008115159050919050565b6116b5816116a0565b82525050565b60006020820190506116d060008301846116ac565b92915050565b6116df8161162a565b82525050565b60006020820190506116fa60008301846116d6565b92915050565b600080600060608486031215611719576117186115c7565b5b600061172786828701611615565b935050602061173886828701611615565b92505060406117498682870161164b565b9150509250925092565b600060ff82169050919050565b61176981611753565b82525050565b60006020820190506117846000830184611760565b92915050565b6000602082840312156117a05761179f6115c7565b5b60006117ae8482850161164b565b91505092915050565b6000602082840312156117cd576117cc6115c7565b5b60006117db84828501611615565b91505092915050565b6117ed816115ec565b82525050565b600060208201905061180860008301846117e4565b92915050565b60008060408385031215611825576118246115c7565b5b600061183385828601611615565b925050602061184485828601611615565b9150509250929050565b7f4e487b7100000000000000000000000000000000000000000000000000000000600052602260045260246000fd5b6000600282049050600182168061189557607f821691505b6020821081036118a8576118a761184e565b5b50919050565b7f4e487b7100000000000000000000000000000000000000000000000000000000600052601160045260246000fd5b60008160011c9050919050565b6000808291508390505b6001851115611934578086048111156119105761190f6118ae565b5b600185161561191f5780820291505b808102905061192d856118dd565b94506118f4565b94509492505050565b60008261194d5760019050611a09565b8161195b5760009050611a09565b8160018114611971576002811461197b576119aa565b6001915050611a09565b60ff84111561198d5761198c6118ae565b5b8360020a9150848211156119a4576119a36118ae565b5b50611a09565b5060208310610133831016604e8410600b84101617156119df5782820a9050838111156119da576119d96118ae565b5b611a09565b6119ec84848460016118ea565b92509050818404811115611a0357611a026118ae565b5b81810290505b9392505050565b6000611a1b8261162a565b9150611a2683611753565b9250611a537fffffffffffffffffffffffffffffffffffffffffffffffffffffffffffffffff848461193d565b905092915050565b7f4e487b7100000000000000000000000000000000000000000000000000000000600052601260045260246000fd5b6000611a958261162a565b9150611aa08361162a565b925082611ab057611aaf611a5b565b5b828204905092915050565b7f427579206c65737320746f6b656e73206f72207061792077697468206d6f726560008201527f2065746865727300000000000000000000000000000000000000000000000000602082015250565b6000611b17602783611520565b9150611b2282611abb565b604082019050919050565b60006020820190508181036000830152611b4681611b0a565b9050919050565b7f427579206120736d616c6c6572206e756d626572206f6620746f6b656e730000600082015250565b6000611b83601e83611520565b9150611b8e82611b4d565b602082019050919050565b60006020820190508181036000830152611bb281611b76565b9050919050565b6000611bc48261162a565b9150611bcf8361162a565b9250828203905081811115611be757611be66118ae565b5b92915050565b6000611bf88261162a565b9150611c038361162a565b9250828201905080821115611c1b57611c1a6118ae565b5b92915050565b7f45524332303a2064656372656173656420616c6c6f77616e63652062656c6f7760008201527f207a65726f000000000000000000000000000000000000000000000000000000602082015250565b6000611c7d602583611520565b9150611c8882611c21565b604082019050919050565b60006020820190508181036000830152611cac81611c70565b9050919050565b7f596f75206e65656420746f2072657475726e206120746f6b656e73206e756d6260008201527f65722067726561746572207468616e2030000000000000000000000000000000602082015250565b6000611d0f603183611520565b9150611d1a82611cb3565b604082019050919050565b60006020820190508181036000830152611d3e81611d02565b9050919050565b7f596f7520646f6e277420686176652074686520746f6b656e7320796f7520776160008201527f6e7420746f2072657475726e0000000000000000000000000000000000000000602082015250565b6000611da1602c83611520565b9150611dac82611d45565b604082019050919050565b60006020820190508181036000830152611dd081611d94565b9050919050565b7f4f776e61626c653a206e6577206f776e657220697320746865207a65726f206160008201527f6464726573730000000000000000000000000000000000000000000000000000602082015250565b6000611e33602683611520565b9150611e3e82611dd7565b604082019050919050565b60006020820190508181036000830152611e6281611e26565b9050919050565b7f45524332303a20617070726f76652066726f6d20746865207a65726f2061646460008201527f7265737300000000000000000000000000000000000000000000000000000000602082015250565b6000611ec5602483611520565b9150611ed082611e69565b604082019050919050565b60006020820190508181036000830152611ef481611eb8565b9050919050565b7f45524332303a20617070726f766520746f20746865207a65726f20616464726560008201527f7373000000000000000000000000000000000000000000000000000000000000602082015250565b6000611f57602283611520565b9150611f6282611efb565b604082019050919050565b60006020820190508181036000830152611f8681611f4a565b9050919050565b7f45524332303a20696e73756666696369656e7420616c6c6f77616e6365000000600082015250565b6000611fc3601d83611520565b9150611fce82611f8d565b602082019050919050565b60006020820190508181036000830152611ff281611fb6565b9050919050565b7f45524332303a207472616e736665722066726f6d20746865207a65726f20616460008201527f6472657373000000000000000000000000000000000000000000000000000000602082015250565b6000612055602583611520565b915061206082611ff9565b604082019050919050565b6000602082019050818103600083015261208481612048565b9050919050565b7f45524332303a207472616e7366657220746f20746865207a65726f206164647260008201527f6573730000000000000000000000000000000000000000000000000000000000602082015250565b60006120e7602383611520565b91506120f28261208b565b604082019050919050565b60006020820190508181036000830152612116816120da565b9050919050565b7f45524332303a207472616e7366657220616d6f756e742065786365656473206260008201527f616c616e63650000000000000000000000000000000000000000000000000000602082015250565b6000612179602683611520565b91506121848261211d565b604082019050919050565b600060208201905081810360008301526121a88161216c565b9050919050565b7f5265656e7472616e637947756172643a207265656e7472616e742063616c6c00600082015250565b60006121e5601f83611520565b91506121f0826121af565b602082019050919050565b60006020820190508181036000830152612214816121d8565b9050919050565b60006122268261162a565b91506122318361162a565b925082820261223f8161162a565b91508282048414831517612256576122556118ae565b5b5092915050565b7f4f776e61626c653a2063616c6c6572206973206e6f7420746865206f776e6572600082015250565b6000612293602083611520565b915061229e8261225d565b602082019050919050565b600060208201905081810360008301526122c281612286565b9050919050565b7f45524332303a206275726e2066726f6d20746865207a65726f2061646472657360008201527f7300000000000000000000000000000000000000000000000000000000000000602082015250565b6000612325602183611520565b9150612330826122c9565b604082019050919050565b6000602082019050818103600083015261235481612318565b9050919050565b7f45524332303a206275726e20616d6f756e7420657863656564732062616c616e60008201527f6365000000000000000000000000000000000000000000000000000000000000602082015250565b60006123b7602283611520565b91506123c28261235b565b604082019050919050565b600060208201905081810360008301526123e6816123aa565b9050919050565b7f45524332303a206d696e7420746f20746865207a65726f206164647265737300600082015250565b6000612423601f83611520565b915061242e826123ed565b602082019050919050565b6000602082019050818103600083015261245281612416565b905091905056fea2646970667358221220dd7b8558dfcbcc454058abedbafa9f0136d0d3a4ef906a3af8fdc64dd889ee1264736f6c63430008110033",
  "linkReferences": {},
  "deployedLinkReferences": {}
}