{
  "_format": "hh-sol-artifact-1",
  "contractName": "Token",
  "sourceName": "contracts/Token.sol",
  "abi": [
    {
      "inputs": [
        {
          "internalType": "string",
          "name": "name",
          "type": "string"
        },
        {
          "internalType": "string",
          "name": "symbol",
          "type": "string"
        },
        {
          "internalType": "uint256",
          "name": "initialSupply",
          "type": "uint256"
        }
      ],
      "stateMutability": "nonpayable",
      "type": "constructor"
    },
    {
      "anonymous": false,
      "inputs": [
        {
          "indexed": true,
          "internalType": "address",
          "name": "owner",
          "type": "address"
        },
        {
          "indexed": true,
          "internalType": "address",
          "name": "spender",
          "type": "address"
        },
        {
          "indexed": false,
          "internalType": "uint256",
          "name": "value",
          "type": "uint256"
        }
      ],
      "name": "Approval",
      "type": "event"
    },
    {
      "anonymous": false,
      "inputs": [
        {
          "indexed": true,
          "internalType": "address",
          "name": "previousOwner",
          "type": "address"
        },
        {
          "indexed": true,
          "internalType": "address",
          "name": "newOwner",
          "type": "address"
        }
      ],
      "name": "OwnershipTransferred",
      "type": "event"
    },
    {
      "anonymous": false,
      "inputs": [
        {
          "indexed": true,
          "internalType": "address",
          "name": "from",
          "type": "address"
        },
        {
          "indexed": true,
          "internalType": "address",
          "name": "to",
          "type": "address"
        },
        {
          "indexed": false,
          "internalType": "uint256",
          "name": "value",
          "type": "uint256"
        }
      ],
      "name": "Transfer",
      "type": "event"
    },
    {
      "inputs": [
        {
          "internalType": "address",
          "name": "owner",
          "type": "address"
        },
        {
          "internalType": "address",
          "name": "spender",
          "type": "address"
        }
      ],
      "name": "allowance",
      "outputs": [
        {
          "internalType": "uint256",
          "name": "",
          "type": "uint256"
        }
      ],
      "stateMutability": "view",
      "type": "function"
    },
    {
      "inputs": [
        {
          "internalType": "address",
          "name": "spender",
          "type": "address"
        },
        {
          "internalType": "uint256",
          "name": "amount",
          "type": "uint256"
        }
      ],
      "name": "approve",
      "outputs": [
        {
          "internalType": "bool",
          "name": "",
          "type": "bool"
        }
      ],
      "stateMutability": "nonpayable",
      "type": "function"
    },
    {
      "inputs": [],
      "name": "balanceEthersSC",
      "outputs": [
        {
          "internalType": "uint256",
          "name": "",
          "type": "uint256"
        }
      ],
      "stateMutability": "view",
      "type": "function"
    },
    {
      "inputs": [
        {
          "internalType": "address",
          "name": "account",
          "type": "address"
        }
      ],
      "name": "balanceOf",
      "outputs": [
        {
          "internalType": "uint256",
          "name": "",
          "type": "uint256"
        }
      ],
      "stateMutability": "view",
      "type": "function"
    },
    {
      "inputs": [],
      "name": "balanceTokensSC",
      "outputs": [
        {
          "internalType": "uint256",
          "name": "",
          "type": "uint256"
        }
      ],
      "stateMutability": "view",
      "type": "function"
    },
    {
      "inputs": [
        {
          "internalType": "uint256",
          "name": "amount",
          "type": "uint256"
        }
      ],
      "name": "burn",
      "outputs": [],
      "stateMutability": "nonpayable",
      "type": "function"
    },
    {
      "inputs": [
        {
          "internalType": "uint256",
          "name": "numTokens",
          "type": "uint256"
        }
      ],
      "name": "buyTokens",
      "outputs": [],
      "stateMutability": "payable",
      "type": "function"
    },
    {
      "inputs": [],
      "name": "decimals",
      "outputs": [
        {
          "internalType": "uint8",
          "name": "",
          "type": "uint8"
        }
      ],
      "stateMutability": "view",
      "type": "function"
    },
    {
      "inputs": [
        {
          "internalType": "address",
          "name": "spender",
          "type": "address"
        },
        {
          "internalType": "uint256",
          "name": "subtractedValue",
          "type": "uint256"
        }
      ],
      "name": "decreaseAllowance",
      "outputs": [
        {
          "internalType": "bool",
          "name": "",
          "type": "bool"
        }
      ],
      "stateMutability": "nonpayable",
      "type": "function"
    },
    {
      "inputs": [
        {
          "internalType": "address",
          "name": "spender",
          "type": "address"
        },
        {
          "internalType": "uint256",
          "name": "addedValue",
          "type": "uint256"
        }
      ],
      "name": "increaseAllowance",
      "outputs": [
        {
          "internalType": "bool",
          "name": "",
          "type": "bool"
        }
      ],
      "stateMutability": "nonpayable",
      "type": "function"
    },
    {
      "inputs": [
        {
          "internalType": "uint256",
          "name": "amount",
          "type": "uint256"
        }
      ],
      "name": "mint",
      "outputs": [],
      "stateMutability": "nonpayable",
      "type": "function"
    },
    {
      "inputs": [],
      "name": "name",
      "outputs": [
        {
          "internalType": "string",
          "name": "",
          "type": "string"
        }
      ],
      "stateMutability": "view",
      "type": "function"
    },
    {
      "inputs": [],
      "name": "owner",
      "outputs": [
        {
          "internalType": "address",
          "name": "",
          "type": "address"
        }
      ],
      "stateMutability": "view",
      "type": "function"
    },
    {
      "inputs": [],
      "name": "renounceOwnership",
      "outputs": [],
      "stateMutability": "nonpayable",
      "type": "function"
    },
    {
      "inputs": [
        {
          "internalType": "uint256",
          "name": "numTokens",
          "type": "uint256"
        }
      ],
      "name": "repayTokens",
      "outputs": [],
      "stateMutability": "payable",
      "type": "function"
    },
    {
      "inputs": [],
      "name": "symbol",
      "outputs": [
        {
          "internalType": "string",
          "name": "",
          "type": "string"
        }
      ],
      "stateMutability": "view",
      "type": "function"
    },
    {
      "inputs": [],
      "name": "totalSupply",
      "outputs": [
        {
          "internalType": "uint256",
          "name": "",
          "type": "uint256"
        }
      ],
      "stateMutability": "view",
      "type": "function"
    },
    {
      "inputs": [
        {
          "internalType": "address",
          "name": "to",
          "type": "address"
        },
        {
          "internalType": "uint256",
          "name": "amount",
          "type": "uint256"
        }
      ],
      "name": "transfer",
      "outputs": [
        {
          "internalType": "bool",
          "name": "",
          "type": "bool"
        }
      ],
      "stateMutability": "nonpayable",
      "type": "function"
    },
    {
      "inputs": [
        {
          "internalType": "address",
          "name": "from",
          "type": "address"
        },
        {
          "internalType": "address",
          "name": "to",
          "type": "address"
        },
        {
          "internalType": "uint256",
          "name": "amount",
          "type": "uint256"
        }
      ],
      "name": "transferFrom",
      "outputs": [
        {
          "internalType": "bool",
          "name": "",
          "type": "bool"
        }
      ],
      "stateMutability": "nonpayable",
      "type": "function"
    },
    {
      "inputs": [
        {
          "internalType": "address",
          "name": "newOwner",
          "type": "address"
        }
      ],
      "name": "transferOwnership",
      "outputs": [],
      "stateMutability": "nonpayable",
      "type": "function"
    }
  ],
  "bytecode": "0x60806040523480156200001157600080fd5b5060405162002e1d38038062002e1d8339818101604052810190620000379190620004b5565b828281600390816200004a919062000790565b5080600490816200005c919062000790565b5050506200007f62000073620000a260201b60201c565b620000aa60201b60201c565b60016006819055506200009930826200017060201b60201c565b50505062000992565b600033905090565b6000600560009054906101000a900473ffffffffffffffffffffffffffffffffffffffff16905081600560006101000a81548173ffffffffffffffffffffffffffffffffffffffff021916908373ffffffffffffffffffffffffffffffffffffffff1602179055508173ffffffffffffffffffffffffffffffffffffffff168173ffffffffffffffffffffffffffffffffffffffff167f8be0079c531659141344cd1fd0a4f28419497f9722a3daafe3b4186f6b6457e060405160405180910390a35050565b600073ffffffffffffffffffffffffffffffffffffffff168273ffffffffffffffffffffffffffffffffffffffff1603620001e2576040517f08c379a0000000000000000000000000000000000000000000000000000000008152600401620001d990620008d8565b60405180910390fd5b620001f660008383620002dd60201b60201c565b80600260008282546200020a919062000929565b92505081905550806000808473ffffffffffffffffffffffffffffffffffffffff1673ffffffffffffffffffffffffffffffffffffffff168152602001908152602001600020600082825401925050819055508173ffffffffffffffffffffffffffffffffffffffff16600073ffffffffffffffffffffffffffffffffffffffff167fddf252ad1be2c89b69c2b068fc378daa952ba7f163c4a11628f55a4df523b3ef83604051620002bd919062000975565b60405180910390a3620002d960008383620002e260201b60201c565b5050565b505050565b505050565b6000604051905090565b600080fd5b600080fd5b600080fd5b600080fd5b6000601f19601f8301169050919050565b7f4e487b7100000000000000000000000000000000000000000000000000000000600052604160045260246000fd5b620003508262000305565b810181811067ffffffffffffffff8211171562000372576200037162000316565b5b80604052505050565b600062000387620002e7565b905062000395828262000345565b919050565b600067ffffffffffffffff821115620003b857620003b762000316565b5b620003c38262000305565b9050602081019050919050565b60005b83811015620003f0578082015181840152602081019050620003d3565b60008484015250505050565b6000620004136200040d846200039a565b6200037b565b90508281526020810184848401111562000432576200043162000300565b5b6200043f848285620003d0565b509392505050565b600082601f8301126200045f576200045e620002fb565b5b815162000471848260208601620003fc565b91505092915050565b6000819050919050565b6200048f816200047a565b81146200049b57600080fd5b50565b600081519050620004af8162000484565b92915050565b600080600060608486031215620004d157620004d0620002f1565b5b600084015167ffffffffffffffff811115620004f257620004f1620002f6565b5b620005008682870162000447565b935050602084015167ffffffffffffffff811115620005245762000523620002f6565b5b620005328682870162000447565b925050604062000545868287016200049e565b9150509250925092565b600081519050919050565b7f4e487b7100000000000000000000000000000000000000000000000000000000600052602260045260246000fd5b60006002820490506001821680620005a257607f821691505b602082108103620005b857620005b76200055a565b5b50919050565b60008190508160005260206000209050919050565b60006020601f8301049050919050565b600082821b905092915050565b600060088302620006227fffffffffffffffffffffffffffffffffffffffffffffffffffffffffffffffff82620005e3565b6200062e8683620005e3565b95508019841693508086168417925050509392505050565b6000819050919050565b6000620006716200066b62000665846200047a565b62000646565b6200047a565b9050919050565b6000819050919050565b6200068d8362000650565b620006a56200069c8262000678565b848454620005f0565b825550505050565b600090565b620006bc620006ad565b620006c981848462000682565b505050565b5b81811015620006f157620006e5600082620006b2565b600181019050620006cf565b5050565b601f82111562000740576200070a81620005be565b6200071584620005d3565b8101602085101562000725578190505b6200073d6200073485620005d3565b830182620006ce565b50505b505050565b600082821c905092915050565b6000620007656000198460080262000745565b1980831691505092915050565b600062000780838362000752565b9150826002028217905092915050565b6200079b826200054f565b67ffffffffffffffff811115620007b757620007b662000316565b5b620007c3825462000589565b620007d0828285620006f5565b600060209050601f831160018114620008085760008415620007f3578287015190505b620007ff858262000772565b8655506200086f565b601f1984166200081886620005be565b60005b8281101562000842578489015182556001820191506020850194506020810190506200081b565b868310156200086257848901516200085e601f89168262000752565b8355505b6001600288020188555050505b505050505050565b600082825260208201905092915050565b7f45524332303a206d696e7420746f20746865207a65726f206164647265737300600082015250565b6000620008c0601f8362000877565b9150620008cd8262000888565b602082019050919050565b60006020820190508181036000830152620008f381620008b1565b9050919050565b7f4e487b7100000000000000000000000000000000000000000000000000000000600052601160045260246000fd5b600062000936826200047a565b915062000943836200047a565b92508282019050808211156200095e576200095d620008fa565b5b92915050565b6200096f816200047a565b82525050565b60006020820190506200098c600083018462000964565b92915050565b61247b80620009a26000396000f3fe60806040526004361061011f5760003560e01c80638da5cb5b116100a0578063a9059cbb11610064578063a9059cbb146103dc578063b934c38414610419578063dd62ed3e14610444578063ecf4911f14610481578063f2fde38b1461049d5761011f565b80638da5cb5b146102f557806392ef10d81461032057806395d89b411461034b578063a0712d6814610376578063a457c2d71461039f5761011f565b80633610724e116100e75780633610724e1461021f578063395093511461023b57806342966c681461027857806370a08231146102a1578063715018a6146102de5761011f565b806306fdde0314610124578063095ea7b31461014f57806318160ddd1461018c57806323b872dd146101b7578063313ce567146101f4575b600080fd5b34801561013057600080fd5b506101396104c6565b6040516101469190611591565b60405180910390f35b34801561015b57600080fd5b506101766004803603810190610171919061164c565b610558565b60405161018391906116a7565b60405180910390f35b34801561019857600080fd5b506101a161057b565b6040516101ae91906116d1565b60405180910390f35b3480156101c357600080fd5b506101de60048036038101906101d991906116ec565b610585565b6040516101eb91906116a7565b60405180910390f35b34801561020057600080fd5b506102096105b4565b604051610216919061175b565b60405180910390f35b61023960048036038101906102349190611776565b6105bd565b005b34801561024757600080fd5b50610262600480360381019061025d919061164c565b6106f2565b60405161026f91906116a7565b60405180910390f35b34801561028457600080fd5b5061029f600480360381019061029a9190611776565b610729565b005b3480156102ad57600080fd5b506102c860048036038101906102c391906117a3565b61073e565b6040516102d591906116d1565b60405180910390f35b3480156102ea57600080fd5b506102f3610786565b005b34801561030157600080fd5b5061030a61079a565b60405161031791906117df565b60405180910390f35b34801561032c57600080fd5b506103356107c4565b60405161034291906116d1565b60405180910390f35b34801561035757600080fd5b506103606107d4565b60405161036d9190611591565b60405180910390f35b34801561038257600080fd5b5061039d60048036038101906103989190611776565b610866565b005b3480156103ab57600080fd5b506103c660048036038101906103c1919061164c565b61087b565b6040516103d391906116a7565b60405180910390f35b3480156103e857600080fd5b5061040360048036038101906103fe919061164c565b6108f2565b60405161041091906116a7565b60405180910390f35b34801561042557600080fd5b5061042e610915565b60405161043b91906116d1565b60405180910390f35b34801561045057600080fd5b5061046b600480360381019061046691906117fa565b610925565b60405161047891906116d1565b60405180910390f35b61049b60048036038101906104969190611776565b6109ac565b005b3480156104a957600080fd5b506104c460048036038101906104bf91906117a3565b610ac5565b005b6060600380546104d590611869565b80601f016020809104026020016040519081016040528092919081815260200182805461050190611869565b801561054e5780601f106105235761010080835404028352916020019161054e565b820191906000526020600020905b81548152906001019060200180831161053157829003601f168201915b5050505050905090565b600080610563610b48565b9050610570818585610b50565b600191505092915050565b6000600254905090565b600080610590610b48565b905061059d858285610d19565b6105a8858585610da5565b60019150509392505050565b60006012905090565b6105c561101b565b60006105ee6105d26105b4565b600a6105de91906119fc565b836105e99190611a76565b61106a565b905080341015610633576040517f08c379a000000000000000000000000000000000000000000000000000000000815260040161062a90611b19565b60405180910390fd5b600061063d6107c4565b905080831115610682576040517f08c379a000000000000000000000000000000000000000000000000000000000815260040161067990611b85565b60405180910390fd5b600082346106909190611ba5565b90503373ffffffffffffffffffffffffffffffffffffffff166108fc829081150290604051600060405180830381858888f193505050501580156106d8573d6000803e3d6000fd5b506106e4303386610da5565b5050506106ef611086565b50565b6000806106fd610b48565b905061071e81858561070f8589610925565b6107199190611bd9565b610b50565b600191505092915050565b610731611090565b61073b308261110e565b50565b60008060008373ffffffffffffffffffffffffffffffffffffffff1673ffffffffffffffffffffffffffffffffffffffff168152602001908152602001600020549050919050565b61078e611090565b61079860006112db565b565b6000600560009054906101000a900473ffffffffffffffffffffffffffffffffffffffff16905090565b60006107cf3061073e565b905090565b6060600480546107e390611869565b80601f016020809104026020016040519081016040528092919081815260200182805461080f90611869565b801561085c5780601f106108315761010080835404028352916020019161085c565b820191906000526020600020905b81548152906001019060200180831161083f57829003601f168201915b5050505050905090565b61086e611090565b61087830826113a1565b50565b600080610886610b48565b905060006108948286610925565b9050838110156108d9576040517f08c379a00000000000000000000000000000000000000000000000000000000081526004016108d090611c7f565b60405180910390fd5b6108e68286868403610b50565b60019250505092915050565b6000806108fd610b48565b905061090a818585610da5565b600191505092915050565b600061091f611090565b47905090565b6000600160008473ffffffffffffffffffffffffffffffffffffffff1673ffffffffffffffffffffffffffffffffffffffff16815260200190815260200160002060008373ffffffffffffffffffffffffffffffffffffffff1673ffffffffffffffffffffffffffffffffffffffff16815260200190815260200160002054905092915050565b6109b461101b565b600081116109f7576040517f08c379a00000000000000000000000000000000000000000000000000000000081526004016109ee90611d11565b60405180910390fd5b610a003361073e565b811115610a42576040517f08c379a0000000000000000000000000000000000000000000000000000000008152600401610a3990611da3565b60405180910390fd5b610a4d333083610da5565b3373ffffffffffffffffffffffffffffffffffffffff166108fc610a8e610a726105b4565b600a610a7e91906119fc565b84610a899190611a76565b61106a565b9081150290604051600060405180830381858888f19350505050158015610ab9573d6000803e3d6000fd5b50610ac2611086565b50565b610acd611090565b600073ffffffffffffffffffffffffffffffffffffffff168173ffffffffffffffffffffffffffffffffffffffff1603610b3c576040517f08c379a0000000000000000000000000000000000000000000000000000000008152600401610b3390611e35565b60405180910390fd5b610b45816112db565b50565b600033905090565b600073ffffffffffffffffffffffffffffffffffffffff168373ffffffffffffffffffffffffffffffffffffffff1603610bbf576040517f08c379a0000000000000000000000000000000000000000000000000000000008152600401610bb690611ec7565b60405180910390fd5b600073ffffffffffffffffffffffffffffffffffffffff168273ffffffffffffffffffffffffffffffffffffffff1603610c2e576040517f08c379a0000000000000000000000000000000000000000000000000000000008152600401610c2590611f59565b60405180910390fd5b80600160008573ffffffffffffffffffffffffffffffffffffffff1673ffffffffffffffffffffffffffffffffffffffff16815260200190815260200160002060008473ffffffffffffffffffffffffffffffffffffffff1673ffffffffffffffffffffffffffffffffffffffff168152602001908152602001600020819055508173ffffffffffffffffffffffffffffffffffffffff168373ffffffffffffffffffffffffffffffffffffffff167f8c5be1e5ebec7d5bd14f71427d1e84f3dd0314c0f7b2291e5b200ac8c7c3b92583604051610d0c91906116d1565b60405180910390a3505050565b6000610d258484610925565b90507fffffffffffffffffffffffffffffffffffffffffffffffffffffffffffffffff8114610d9f5781811015610d91576040517f08c379a0000000000000000000000000000000000000000000000000000000008152600401610d8890611fc5565b60405180910390fd5b610d9e8484848403610b50565b5b50505050565b600073ffffffffffffffffffffffffffffffffffffffff168373ffffffffffffffffffffffffffffffffffffffff1603610e14576040517f08c379a0000000000000000000000000000000000000000000000000000000008152600401610e0b90612057565b60405180910390fd5b600073ffffffffffffffffffffffffffffffffffffffff168273ffffffffffffffffffffffffffffffffffffffff1603610e83576040517f08c379a0000000000000000000000000000000000000000000000000000000008152600401610e7a906120e9565b60405180910390fd5b610e8e8383836114f7565b60008060008573ffffffffffffffffffffffffffffffffffffffff1673ffffffffffffffffffffffffffffffffffffffff16815260200190815260200160002054905081811015610f14576040517f08c379a0000000000000000000000000000000000000000000000000000000008152600401610f0b9061217b565b60405180910390fd5b8181036000808673ffffffffffffffffffffffffffffffffffffffff1673ffffffffffffffffffffffffffffffffffffffff16815260200190815260200160002081905550816000808573ffffffffffffffffffffffffffffffffffffffff1673ffffffffffffffffffffffffffffffffffffffff168152602001908152602001600020600082825401925050819055508273ffffffffffffffffffffffffffffffffffffffff168473ffffffffffffffffffffffffffffffffffffffff167fddf252ad1be2c89b69c2b068fc378daa952ba7f163c4a11628f55a4df523b3ef8460405161100291906116d1565b60405180910390a36110158484846114fc565b50505050565b600260065403611060576040517f08c379a0000000000000000000000000000000000000000000000000000000008152600401611057906121e7565b60405180910390fd5b6002600681905550565b6000662386f26fc100008261107f9190612207565b9050919050565b6001600681905550565b611098610b48565b73ffffffffffffffffffffffffffffffffffffffff166110b661079a565b73ffffffffffffffffffffffffffffffffffffffff161461110c576040517f08c379a000000000000000000000000000000000000000000000000000000000815260040161110390612295565b60405180910390fd5b565b600073ffffffffffffffffffffffffffffffffffffffff168273ffffffffffffffffffffffffffffffffffffffff160361117d576040517f08c379a000000000000000000000000000000000000000000000000000000000815260040161117490612327565b60405180910390fd5b611189826000836114f7565b60008060008473ffffffffffffffffffffffffffffffffffffffff1673ffffffffffffffffffffffffffffffffffffffff1681526020019081526020016000205490508181101561120f576040517f08c379a0000000000000000000000000000000000000000000000000000000008152600401611206906123b9565b60405180910390fd5b8181036000808573ffffffffffffffffffffffffffffffffffffffff1673ffffffffffffffffffffffffffffffffffffffff1681526020019081526020016000208190555081600260008282540392505081905550600073ffffffffffffffffffffffffffffffffffffffff168373ffffffffffffffffffffffffffffffffffffffff167fddf252ad1be2c89b69c2b068fc378daa952ba7f163c4a11628f55a4df523b3ef846040516112c291906116d1565b60405180910390a36112d6836000846114fc565b505050565b6000600560009054906101000a900473ffffffffffffffffffffffffffffffffffffffff16905081600560006101000a81548173ffffffffffffffffffffffffffffffffffffffff021916908373ffffffffffffffffffffffffffffffffffffffff1602179055508173ffffffffffffffffffffffffffffffffffffffff168173ffffffffffffffffffffffffffffffffffffffff167f8be0079c531659141344cd1fd0a4f28419497f9722a3daafe3b4186f6b6457e060405160405180910390a35050565b600073ffffffffffffffffffffffffffffffffffffffff168273ffffffffffffffffffffffffffffffffffffffff1603611410576040517f08c379a000000000000000000000000000000000000000000000000000000000815260040161140790612425565b60405180910390fd5b61141c600083836114f7565b806002600082825461142e9190611bd9565b92505081905550806000808473ffffffffffffffffffffffffffffffffffffffff1673ffffffffffffffffffffffffffffffffffffffff168152602001908152602001600020600082825401925050819055508173ffffffffffffffffffffffffffffffffffffffff16600073ffffffffffffffffffffffffffffffffffffffff167fddf252ad1be2c89b69c2b068fc378daa952ba7f163c4a11628f55a4df523b3ef836040516114df91906116d1565b60405180910390a36114f3600083836114fc565b5050565b505050565b505050565b600081519050919050565b600082825260208201905092915050565b60005b8381101561153b578082015181840152602081019050611520565b60008484015250505050565b6000601f19601f8301169050919050565b600061156382611501565b61156d818561150c565b935061157d81856020860161151d565b61158681611547565b840191505092915050565b600060208201905081810360008301526115ab8184611558565b905092915050565b600080fd5b600073ffffffffffffffffffffffffffffffffffffffff82169050919050565b60006115e3826115b8565b9050919050565b6115f3816115d8565b81146115fe57600080fd5b50565b600081359050611610816115ea565b92915050565b6000819050919050565b61162981611616565b811461163457600080fd5b50565b60008135905061164681611620565b92915050565b60008060408385031215611663576116626115b3565b5b600061167185828601611601565b925050602061168285828601611637565b9150509250929050565b60008115159050919050565b6116a18161168c565b82525050565b60006020820190506116bc6000830184611698565b92915050565b6116cb81611616565b82525050565b60006020820190506116e660008301846116c2565b92915050565b600080600060608486031215611705576117046115b3565b5b600061171386828701611601565b935050602061172486828701611601565b925050604061173586828701611637565b9150509250925092565b600060ff82169050919050565b6117558161173f565b82525050565b6000602082019050611770600083018461174c565b92915050565b60006020828403121561178c5761178b6115b3565b5b600061179a84828501611637565b91505092915050565b6000602082840312156117b9576117b86115b3565b5b60006117c784828501611601565b91505092915050565b6117d9816115d8565b82525050565b60006020820190506117f460008301846117d0565b92915050565b60008060408385031215611811576118106115b3565b5b600061181f85828601611601565b925050602061183085828601611601565b9150509250929050565b7f4e487b7100000000000000000000000000000000000000000000000000000000600052602260045260246000fd5b6000600282049050600182168061188157607f821691505b6020821081036118945761189361183a565b5b50919050565b7f4e487b7100000000000000000000000000000000000000000000000000000000600052601160045260246000fd5b60008160011c9050919050565b6000808291508390505b6001851115611920578086048111156118fc576118fb61189a565b5b600185161561190b5780820291505b8081029050611919856118c9565b94506118e0565b94509492505050565b60008261193957600190506119f5565b8161194757600090506119f5565b816001811461195d576002811461196757611996565b60019150506119f5565b60ff8411156119795761197861189a565b5b8360020a9150848211156119905761198f61189a565b5b506119f5565b5060208310610133831016604e8410600b84101617156119cb5782820a9050838111156119c6576119c561189a565b5b6119f5565b6119d884848460016118d6565b925090508184048111156119ef576119ee61189a565b5b81810290505b9392505050565b6000611a0782611616565b9150611a128361173f565b9250611a3f7fffffffffffffffffffffffffffffffffffffffffffffffffffffffffffffffff8484611929565b905092915050565b7f4e487b7100000000000000000000000000000000000000000000000000000000600052601260045260246000fd5b6000611a8182611616565b9150611a8c83611616565b925082611a9c57611a9b611a47565b5b828204905092915050565b7f427579206c65737320746f6b656e73206f72207061792077697468206d6f726560008201527f2065746865727300000000000000000000000000000000000000000000000000602082015250565b6000611b0360278361150c565b9150611b0e82611aa7565b604082019050919050565b60006020820190508181036000830152611b3281611af6565b9050919050565b7f427579206120736d616c6c6572206e756d626572206f6620746f6b656e730000600082015250565b6000611b6f601e8361150c565b9150611b7a82611b39565b602082019050919050565b60006020820190508181036000830152611b9e81611b62565b9050919050565b6000611bb082611616565b9150611bbb83611616565b9250828203905081811115611bd357611bd261189a565b5b92915050565b6000611be482611616565b9150611bef83611616565b9250828201905080821115611c0757611c0661189a565b5b92915050565b7f45524332303a2064656372656173656420616c6c6f77616e63652062656c6f7760008201527f207a65726f000000000000000000000000000000000000000000000000000000602082015250565b6000611c6960258361150c565b9150611c7482611c0d565b604082019050919050565b60006020820190508181036000830152611c9881611c5c565b9050919050565b7f596f75206e65656420746f2072657475726e206120746f6b656e73206e756d6260008201527f65722067726561746572207468616e2030000000000000000000000000000000602082015250565b6000611cfb60318361150c565b9150611d0682611c9f565b604082019050919050565b60006020820190508181036000830152611d2a81611cee565b9050919050565b7f596f7520646f6e277420686176652074686520746f6b656e7320796f7520776160008201527f6e7420746f2072657475726e0000000000000000000000000000000000000000602082015250565b6000611d8d602c8361150c565b9150611d9882611d31565b604082019050919050565b60006020820190508181036000830152611dbc81611d80565b9050919050565b7f4f776e61626c653a206e6577206f776e657220697320746865207a65726f206160008201527f6464726573730000000000000000000000000000000000000000000000000000602082015250565b6000611e1f60268361150c565b9150611e2a82611dc3565b604082019050919050565b60006020820190508181036000830152611e4e81611e12565b9050919050565b7f45524332303a20617070726f76652066726f6d20746865207a65726f2061646460008201527f7265737300000000000000000000000000000000000000000000000000000000602082015250565b6000611eb160248361150c565b9150611ebc82611e55565b604082019050919050565b60006020820190508181036000830152611ee081611ea4565b9050919050565b7f45524332303a20617070726f766520746f20746865207a65726f20616464726560008201527f7373000000000000000000000000000000000000000000000000000000000000602082015250565b6000611f4360228361150c565b9150611f4e82611ee7565b604082019050919050565b60006020820190508181036000830152611f7281611f36565b9050919050565b7f45524332303a20696e73756666696369656e7420616c6c6f77616e6365000000600082015250565b6000611faf601d8361150c565b9150611fba82611f79565b602082019050919050565b60006020820190508181036000830152611fde81611fa2565b9050919050565b7f45524332303a207472616e736665722066726f6d20746865207a65726f20616460008201527f6472657373000000000000000000000000000000000000000000000000000000602082015250565b600061204160258361150c565b915061204c82611fe5565b604082019050919050565b6000602082019050818103600083015261207081612034565b9050919050565b7f45524332303a207472616e7366657220746f20746865207a65726f206164647260008201527f6573730000000000000000000000000000000000000000000000000000000000602082015250565b60006120d360238361150c565b91506120de82612077565b604082019050919050565b60006020820190508181036000830152612102816120c6565b9050919050565b7f45524332303a207472616e7366657220616d6f756e742065786365656473206260008201527f616c616e63650000000000000000000000000000000000000000000000000000602082015250565b600061216560268361150c565b915061217082612109565b604082019050919050565b6000602082019050818103600083015261219481612158565b9050919050565b7f5265656e7472616e637947756172643a207265656e7472616e742063616c6c00600082015250565b60006121d1601f8361150c565b91506121dc8261219b565b602082019050919050565b60006020820190508181036000830152612200816121c4565b9050919050565b600061221282611616565b915061221d83611616565b925082820261222b81611616565b915082820484148315176122425761224161189a565b5b5092915050565b7f4f776e61626c653a2063616c6c6572206973206e6f7420746865206f776e6572600082015250565b600061227f60208361150c565b915061228a82612249565b602082019050919050565b600060208201905081810360008301526122ae81612272565b9050919050565b7f45524332303a206275726e2066726f6d20746865207a65726f2061646472657360008201527f7300000000000000000000000000000000000000000000000000000000000000602082015250565b600061231160218361150c565b915061231c826122b5565b604082019050919050565b6000602082019050818103600083015261234081612304565b9050919050565b7f45524332303a206275726e20616d6f756e7420657863656564732062616c616e60008201527f6365000000000000000000000000000000000000000000000000000000000000602082015250565b60006123a360228361150c565b91506123ae82612347565b604082019050919050565b600060208201905081810360008301526123d281612396565b9050919050565b7f45524332303a206d696e7420746f20746865207a65726f206164647265737300600082015250565b600061240f601f8361150c565b915061241a826123d9565b602082019050919050565b6000602082019050818103600083015261243e81612402565b905091905056fea2646970667358221220579b9fdd16826a9b9c874867c27e245989fcdc06c4be48ff08f896b38720635564736f6c63430008110033",
  "linkReferences": {},
  "deployedLinkReferences": {}
}